:020000040800F2
:1000000078B30020251300082D1300082F130008D3
:1000100031130008331300083513000800000000F6
:10002000000000000000000000000000371300087E
:1000300039130008000000003B1300083D130008BE
:10004000933400084D2B0008A52E0008B92C000899
:10005000DD200008B52C00083D20000841200008E4
:100060004320000845200008472000083D1E0008E6
:100070003F1E0008411E0008431E0008451E0008E0
:10008000471E0008491E00081D1B00083F130008FA
:100090003F1300083F1300083F13000849200008E1
:1000A000A72E0008AD2E0008AB2E0008A92E0008D0
:1000B000AF2E0008B12E0008B32E0008032600085A
:1000C000012600080726000805260008BD2C0008A8
:1000D000BF2C00084B3000084131000843310008B4
:1000E0003F200008B72C0008CB320008BB2E0008C8
:1000F000C12E0008BF2E0008BD2E00081F1B0008DF
:1001000077210008BB2C0008B52E0008C12C000880
:100110004730000849300008B72E0008B92E000803
:100120004B1E00084D1E00084F1E0008511E0008FF
:10013000DFF80CD001F094FC00480047514900085A
:1001400078B300202DE9F04F4FF0000C4FF0000382
:1001500001EB9C5EBEF90250BEF900400EF5806EC8
:10016000BEF90290BEF900800EF5806EBEF90270F5
:10017000BEF900600EF5806EBEF902B0BEF900A0B7
:100180000EF5806ED044D944A8EB4A0AA9EB4B0B7C
:100190004FEAA4044FEAA50504EBA60405EBA70566
:1001A000A4EB6606A5EB670704EBA80405EBA9051D
:1001B000A4EB6808A5EB690906EBAB06A7EBAA0759
:1001C000A6EB6B0B07EB6A0A458020F8044B4780CF
:1001D00020F8046BA0F8029020F8048BA0F802A08D
:1001E00020F804BB03F1010393FAA3FCB3F5807F6D
:1001F000AED1A0EB82014FF0100312090FF23410C0
:1002000000F1000006B403EB430C6144A2F5803218
:1002100002EB8332B1F90250B1F90040A1EB0301C6
:10022000B0F902B0B0F900A000F10400A5EB040E93
:100230000EFB0BFC0AEB4B0E05FB0ACB04FB0ECAB4
:10024000B1F90250B1F90040A1EB0301B0F90290FD
:10025000B0F9008000F10400A5EB040E0EFB09FCD0
:1002600008EB490E05FB08C904FB0EC8B1F90250A2
:10027000B1F90040A1EB0301B0F90270B0F90060E0
:1002800000F10400A5EB040E0EFB07FC06EB470E85
:1002900005FB06C704FB0EC6B1F90250B1F90040D8
:1002A00001F10001D044D944A8EB4A0AA9EB4B0B59
:1002B0004FEAA4044FEAA50504EB264405EB2745C5
:1002C000A4EBE636A5EBE73704EB284405EB29451C
:1002D000A4EBE838A5EBE93906EB2B46A7EB2A4758
:1002E000A6EBEB3B07EBEA3A4D800C8019444F80BC
:1002F0000E801944A1F80290A1F800801944A1F8D9
:1003000002A021F804BBB2F5803283DA03EB430C80
:100310006144A2F101025FEA024E18BFA0EB0C009B
:100320007FF476AF06BC4FEA830392087FF46AAF8E
:10033000BDE8F08F004000000040000000400000D9
:100340005DDD213BA3227E180000412D7EA5412DBD
:100350000000412D00C000405DDD82E75DDD213BF6
:100360007EA5412D0040000000400000004000003C
:10037000AA2A94126B39460649327C0CA8118E23A6
:1003800049327C0CA3227E1821F77931AA2A9412D3
:10039000A8118E235DDD213BA3227E180000412D94
:1003A00095C6B13F461A2B1E58EE3735BEB4C53E32
:1003B000A8118E235DDD213B63A97138DF089A28DF
:1003C000B7CDC53E7EA5412D0000412D00C00040A7
:1003D00063A92B1E21F77931BEB4C53EBEB47C0C97
:1003E00058EE373561AC213B95C6BAF9BAE571389C
:1003F0003BA737355DDD82E75DDD213B7EA5412DE5
:1004000021F766D756D53F3D3BA78E23A811C9CA11
:10041000B7CDC53E61AC7E18AA2AC1C295C6B13F10
:10042000BEB47C0C00400000004000000040000012
:100430001E3BB504693E9201C83C2403EB356409B8
:10044000C83C24036B3946066C30060E1E3BB504CF
:10045000EB356409AA2A94126B39460649327C0CA2
:10046000AE240917AF37D607882E8D0F7E1E5D1B71
:10047000EB356409AA2A941224188C1F1E34F10A41
:10048000B3269015A8118E2349327C0CA3227E1826
:10049000140B60276C30060E7E1E5D1B7104FB2A58
:1004A000882E8D0F461A2B1EC7FD5A2E9D2C121119
:1004B000FE15E72021F77931AA2A9412A8118E237C
:1004C00087F05334B2281314480D202602EAE5368B
:1004D000B3269015DF089A289CE32B39AE24091720
:1004E0007104FB2A5DDD213BA3227E180000412D13
:1004F0004ED7C53C9320EF198FFB6C2F78D1153E5A
:100500007E1E5D1B21F77931E2CB0F3F641CC61CB8
:10051000B8F2683395C6B13F461A2B1E58EE3735F0
:1005200097C1FB3F24188C1F02EAE536F0BCEC3F74
:10053000FE15E720BAE57138A6B8853FD5133D22F0
:1005400082E1DB39BEB4C53EA8118E235DDD213BBF
:1005500040B1AF3D790FDA244DD9423C2EAE423C3A
:10056000480D202656D53F3D8EAB823A140B6027AE
:1005700078D1153E63A97138DF089A28B7CDC53EFA
:10058000B1A71236A906CE2915CA4F3F78A66833FF
:100590007104FB2A95C6B13FBCA576303902212CE7
:1005A00038C3EC3F7EA5412D0000412D00C0004026
:1005B000BCA5CE29C7FD5A2EF0BCEC3F78A620265C
:1005C0008FFB6C2F09BAB13FB1A73D2257F97630A6
:1005D0004DB74F3F63A92B1E21F77931BEB4C53EFD
:1005E0008EABEF19ECF474325EB2153E2EAE901560
:1005F000B8F268332DB03F3D40B1121187F053344B
:100600002EAE423CBEB47C0C58EE373561AC213B7B
:10061000A6B8D6072BEC1236C8AADB39F0BC2403E7
:1006200002EAE53663A9713897C16EFEDCE7B037A0
:1006300034A8E53695C6BAF9BAE571383BA737351F
:10064000E2CB0FF59CE32B3978A6683378D173F0B1
:1006500082E1DB39EDA579314ED7EDEB6DDF823AE2
:1006600099A56C2F5DDD82E75DDD213B7EA5412DE7
:100670009CE33AE352DBB63B99A5FB2A02EA19DF79
:100680004DD9423CEDA59A2887F026DB4ED7C53CD4
:1006900078A6202621F766D756D53F3D3BA78E2367
:1006A000C7FDDFD363D3AF3D34A8E720710494D0F6
:1006B00078D1153E63A92B1E140B8CCD94CF723EBE
:1006C000C8AA5D1BA811C9CAB7CDC53E61AC7E18CA
:1006D000241850C8E2CB0F3F2EAE90157E1E25C6C3
:1006E00015CA4F3F2DB09412AE244AC451C8853F5D
:1006F0005EB28D0FAA2AC1C295C6B13FBEB47C0CB2
:100700006C308EC1E2C4D43F4DB76409EB35B1C043
:1007100038C3EC3F09BA46061E3B2CC097C1FB3FCD
:10072000F0BC240300400000004000000040000036
:10073000D03E2E019B3F6500363FC9009A3D5B02CB
:10074000363FC900693E92015F3C8803D03E2E01CE
:100750009A3D5B021E3BB504693E9201C83C2403EE
:10076000D939E205023EF701F43BED038E380E075E
:100770009A3D5B021E3BB5043F373908313DC0024C
:10078000463A7E05EB356409C83C24036B394606BE
:1007900092348E0A5F3C88038E380E073433B70BD1
:1007A000F43BED03AF37D607D231DF0C8A3B51045F
:1007B000CE369D086C30060E1E3BB504EB35640941
:1007C000022F2B0FB23A1A0505352B0A932D501024
:1007D000463A7E051E34F10A212C7311D939E205FF
:1007E0003433B70BAA2A94126B39460649327C0C73
:1007F0003129B413FD38AA065B31410DB327D21459
:100800008E380E076C30060E3226EE151F38720732
:100810007B2FCA0EAE240917AF37D607882E8D0F4F
:10082000262321183F373908932D50109C21371962
:10083000CE369D089D2C12110E204B1A5D360109F3
:10084000A42BD3117E1E5D1BEB356409AA2A9412DA
:10085000EB1C6C1C7835C709AF295413561B791D46
:1008600005352B0AB2281314BE19841E92348E0A41
:10087000B327D21424188C1F1E34F10AB326901506
:1008800088169120A933540BB1254C16EA149321F4
:100890003433B70BAE2409174A139222BF321A0C15
:1008A000A923C417A8118E2349327C0CA3227E18D9
:1008B00005108824D231DF0C9C213719610E7E256A
:1008C0005B31410D9320EF19BB0C7126E430A40D70
:1008D000891FA71A140B60276C30060E7E1E5D1B45
:1008E0006D094C28F42F680E721D121CC40735299F
:1008F0007B2FCA0E641CC61C1B061A2A022F2B0F44
:10090000561B791D7104FB2A882E8D0F461A2B1E4B
:10091000C702D82B0E2EEE0F3519DC1E1C01B22C8F
:10092000932D501024188C1F72FF882D182DB11094
:1009300011173A20C7FD5A2E9D2C1211FE15E720E3
:100940001DFC282F212C7311EA14932173FAF22F26
:10095000A42BD311D5133D22CAF8B830282B34125A
:10096000BF12E72221F77931AA2A9412A8118E2307
:1009700079F536322D2AF41291103524D2F3EF3264
:10098000AF295413790FDA242CF2A3333129B4138D
:10099000610E7E2587F05334B2281314480D2026AB
:1009A000E3EEFF34332873142E0CC12641EDA53538
:1009B000B327D214140B6027A1EB48363327311527
:1009C000FA09FE2702EAE536B3269015DF089A28D1
:1009D00065E87E373226EE15C4073529CBE6123896
:1009E000B1254C16A906CE2932E5A1382F25AB1624
:1009F0008D05652A9CE32B39AE2409177104FB2A67
:100A000008E2B0392B24661755038F2B77E0303A74
:100A1000A923C4173902212CE9DEAB3A2623211879
:100A20001C01B22C5DDD213BA3227E180000412D6C
:100A3000D5DB923B1F22DB18E4FECF2D4FDAFD3BC6
:100A40009C213719C7FD5A2ECDD8643C1721931924
:100A5000ABFCE42E4ED7C53C9320EF198FFB6C2FD7
:100A6000D3D5213D0E204B1A73FAF22F5CD4783D7A
:100A7000891FA71A57F97630E8D2C93D041F021B17
:100A80003CF8F93078D1153E7E1E5D1B21F7793197
:100A90000CD05C3EF81DB81B06F6F831A5CE9D3E85
:100AA000721D121CECF4743241CDD83EEB1C6C1C50
:100AB000D2F3EF32E2CB0F3F641CC61CB8F26833AE
:100AC00088CA403FDD1B201D9FF1DF3332C96B3FD9
:100AD000561B791D87F05334E1C7913FCE1AD31DC1
:100AE0006FEFC63495C6B13F461A2B1E58EE373508
:100AF0004EC5CC3FBE19841E41EDA5350CC4E13F67
:100B00003519DC1E2BEC1236CFC2F13FAD18341F65
:100B100016EB7D3697C1FB3F24188C1F02EAE536A1
:100B200065C000409B17E31FEFE84B3738BFFF3F1E
:100B300011173A20DCE7B03711BEF83F8816912034
:100B4000CBE61238F0BCEC3FFE15E720BAE5713871
:100B5000D4BBDB3F74153D21AAE4CF38BFBAC43FF4
:100B6000EA1493219CE32B39AFB9A73F5F14E82126
:100B70008EE28439A6B8853FD5133D2282E1DB3968
:100B8000A2B75D3F4A13922277E0303AA5B6303FD4
:100B9000BF12E7226DDF823AAFB5FD3E34123B2330
:100BA00064DED33ABEB4C53EA8118E235DDD213B81
:100BB000D5B3883E1D11E22357DC6D3BF2B2453EB2
:100BC0009110352452DBB63B15B2FC3D051088244C
:100BD0004FDAFD3B40B1AF3D790FDA244DD9423CAD
:100BE00071B05B3DED0E2C254DD8853CA9AF033D82
:100BF000610E7E254ED7C53CE8AEA53CD40DCF2571
:100C000051D6033D2EAE423C480D202656D53F3DE1
:100C10007BADDA3BBB0C71265CD4783DD0AC6D3B30
:100C20002E0CC12663D3AF3D2BACFA3AA10B112792
:100C30006DD2E33D8EAB823A140B602778D1153E1E
:100C4000F8AA063A870AAF2785D0453E6AAA8439B2
:100C5000FA09FE2794CF723EE3A9FD386D094C28AE
:100C6000A5CE9D3E63A97138DF089A28B7CDC53E51
:100C7000EBA8E1375208E728CCCCEB3E7BA84B37FA
:100C8000C4073529E2CB0F3F12A8B13636078129B8
:100C9000FBCA303FB1A71236A906CE2915CA4F3F6D
:100CA00057A76E351B061A2A32C96B3F05A7C634F3
:100CB0008D05652A51C8853FBBA61934FF04B02AAB
:100CC00072C79C3F78A668337104FB2A95C6B13F72
:100CD0003EA6B232E303452BBAC5C43F0BA6F8319A
:100CE00055038F2BE2C4D43FE0A53931C702D82B7E
:100CF0000CC4E13FBCA576303902212C38C3EC3F4F
:100D0000A1A5AF2FAA016A2C66C2F53F8DA5E42EDE
:100D10001C01B22C97C1FB3F81A5152E8E00FA2C29
:100D2000CAC0FF3F7EA5412D0000412D00C00040FC
:100D300081A56A2C72FF882D38BFFF3F8DA58F2BB0
:100D4000E4FECF2D73BEFB3FA1A5B02A56FE152EA3
:100D5000B0BDF53FBCA5CE29C7FD5A2EF0BCEC3F77
:100D6000E0A5E72839FD9F2E32BCE13F0BA6FE2708
:100D7000ABFCE42E77BBD43F3EA611271DFC282FE9
:100D8000BFBAC43F78A620268FFB6C2F09BAB13FAB
:100D9000BBA62C2501FBAF2F56B99C3F05A73524D8
:100DA00073FAF22FA6B8853F57A73B23E5F93430F5
:100DB000F8B76B3FB1A73D2257F976304DB74F3F9B
:100DC00012A83D21CAF8B830A5B6303F7BA83A201A
:100DD0003CF8F93000B60F3FEBA8341FAEF73931BD
:100DE0005EB5EB3E63A92B1E21F77931BEB4C53E3B
:100DF000E3A9201D93F6B93122B49D3E6AAA121CC4
:100E000006F6F83188B3723EF8AA021B79F536323D
:100E1000F2B2453E8EABEF19ECF474325EB2153E81
:100E20002BACDB185FF4B232CDB1E33DD0ACC417CC
:100E3000D2F3EF3240B1AF3D7BADAB1645F32C336F
:100E4000B5B0783D2EAE9015B8F268332DB03F3D69
:100E5000E8AE73142CF2A333A9AF033DA9AF54132A
:100E60009FF1DF3328AFC53C71B0341213F1193450
:100E7000A9AE853C40B1121187F053342EAE423CEE
:100E800015B2EE0FFBEF8D34B6ADFD3BF2B2CA0EDC
:100E90006FEFC63441ADB63BD5B3A40DE3EEFF34DE
:100EA000D0AC6D3BBEB47C0C58EE373561AC213B09
:100EB000AFB5540BCCED6E35F6ABD33AA5B62B0AD5
:100EC00041EDA5358EAB823AA2B70109B6ECDC350F
:100ED00029AB303AA6B8D6072BEC1236C8AADB39B4
:100EE000AFB9AA06A1EB48366AAA8439BFBA7E0513
:100EF00016EB7D360FAA2B39D4BB51048CEAB136E0
:100F0000B7A9CF38F0BC240302EAE53663A97138EB
:100F100011BEF70178E9183712A9123838BFC90095
:100F2000EFE84B37C5A8B03765C09BFF65E87E3753
:100F30007BA84B3797C16EFEDCE7B03734A8E536A7
:100F4000CFC240FD53E7E137F1A77D360CC413FC57
:100F5000CBE61238B1A712364EC5E6FA42E6423861
:100F600074A7A53595C6BAF9BAE571383BA73735E8
:100F7000E1C78EF832E5A13805A7C63432C963F758
:100F8000AAE4CF38D3A6533488CA39F623E4FD380F
:100F9000A4A6DF33E2CB0FF59CE32B3978A66833A8
:100FA00041CDE6F315E3583950A6EF32A5CEBFF296
:100FB0008EE284392CA674320CD098F108E2B03954
:100FC0000BA6F83178D173F082E1DB39EDA57931E8
:100FD000E8D24FEFFCE0063AD3A5F9305CD42DEE11
:100FE00077E0303ABCA57630D3D50CEDF2DF593A34
:100FF000A9A5F22F4ED7EDEB6DDF823A99A56C2FA4
:10100000CDD8CFEAE9DEAB3A8DA5E42E4FDAB4E9CC
:1010100064DED33A85A55A2ED5DB9AE8E1DDFA3AAB
:101020007FA5CF2D5DDD82E75DDD213B7EA5412DD6
:10103000E9DE6DE6DADC473B7FA5B22C77E059E5C7
:1010400057DC6D3B85A5212C08E248E4D5DB923BBB
:101050008DA58F2B9CE33AE352DBB63B99A5FB2A87
:1010600032E52DE2D1DADA3BA9A5652ACBE624E107
:101070004FDAFD3BBCA5CE2965E81DE0CED9203C6A
:10108000D3A5352902EA19DF4DD9423CEDA59A28AE
:10109000A1EB18DECDD8643C0BA6FE2741ED19DD8F
:1010A0004DD8853C2CA66027E3EE1EDCCDD7A53CB1
:1010B00050A6C12687F026DB4ED7C53C78A6202651
:1010C0002CF231DACFD6E43CA4A67E25D2F33FD968
:1010D00051D6033DD3A6DA2479F551D8D3D5213D95
:1010E00005A7352421F766D756D53F3D3BA78E236C
:1010F000CAF87FD6D8D45B3D74A7E72273FA9BD594
:101100005CD4783DB1A73D221DFCBBD4DFD3933D19
:10111000F1A79321C7FDDFD363D3AF3D34A8E72008
:1011200072FF06D3E8D2C93D7BA83A201C0131D218
:101130006DD2E33DC5A88C1FC70261D1F2D1FC3D41
:1011400012A9DC1E710494D078D1153E63A92B1E20
:101150001B06CCCFFED02D3EB7A9791DC40707CF03
:1011600085D0453E0FAAC61C6D0947CE0CD05C3E0B
:101170006AAA121C140B8CCD94CF723EC8AA5D1BB8
:10118000BB0CD4CC1CCF883E29ABA71A610E21CC56
:10119000A5CE9D3E8EABEF19051073CB2ECEB13E82
:1011A000F6AB3719A811C9CAB7CDC53E61AC7E18D8
:1011B0004A1324CA41CDD83ED0ACC417EA1483C91F
:1011C000CCCCEB3E41AD09178816E8C857CCFD3EA4
:1011D000B6AD4C16241850C8E2CB0F3F2EAE90157A
:1011E000BE19BEC76ECB203FA9AED214561B31C765
:1011F000FBCA303F28AF1314EB1CA8C688CA403F77
:10120000A9AF54137E1E25C615CA4F3F2DB09412A8
:101210000E20A7C5A3C95D3FB5B0D3119C212DC534
:1012200032C96B3F40B112112623B9C4C1C8783FFF
:10123000CDB15010AE244AC451C8853F5EB28D0F67
:101240003226E0C3E1C7913FF2B2CA0EB3277BC397
:1012500072C79C3F88B3060E31291CC303C7A73F42
:1012600022B4410DAA2AC1C295C6B13FBEB47C0CBE
:10127000212C6DC227C6BB3F5EB5B70B932D1DC297
:10128000BAC5C43F00B6F10A022FD3C14EC5CC3F48
:10129000A5B62B0A6C308EC1E2C4D43F4DB76409A9
:1012A000D2314FC176C4DB3FF8B79D08343315C146
:1012B0000CC4E13FA6B8D6079234E0C0A1C3E73F13
:1012C00056B90E07EB35B1C038C3EC3F09BA460634
:1012D0003F3788C0CFC2F13FBFBA7E058E3864C0A9
:1012E00066C2F53F77BBB504D93945C0FEC1F83FAA
:1012F00032BCED031E3B2CC097C1FB3FF0BC240366
:101300005F3C19C030C1FD3FB0BD5B029A3D0BC0D0
:10131000CAC0FF3F73BE9201D03E03C065C000400B
:1013200038BFC9000648804706480047FEE7FEE789
:10133000FEE7FEE7FEE7FEE7FEE7FEE7FEE7FEE785
:10134000512E00083101000880EA010210B502F0B8
:101350000043400022D04A001FD0010E01EB126171
:10136000C0F35600C2F3560240F4000042F40002FB
:10137000A0FB022000047F39140400D0401C50EA76
:10138000124001D44000491EC2B20C0604EBD0103A
:10139000401C4008802A02D003E0002010BD20F04D
:1013A0000100002900DA0020184310BD2DE9FE4F8E
:1013B00081EA030404F0004421F0004100944FF05E
:1013C000000B23F0004350EA01045ED052EA03040C
:1013D0005BD0C3F30A54C1F30A552C44A4F2F3348E
:1013E0000194A0FB0254C1F3130141F48011C3F333
:1013F000130343F4801301FB024400FB034E840AF1
:10140000970A44EA815447EA8357A4FB0768029588
:101410008D0A05FB07854FEA932C04FB0C54270526
:10142000029D4FEA065847EA1637B5EB08056EEB02
:10143000070C870E920E47EA811742EA8312A7FB38
:101440000201B6EB0B0164EB00042B0D43EA0C33F5
:101450005E1844EB1C50DA465146E7FB0201C5F327
:1014600013044FEA0B3343EA14534FEA0432019C4E
:1014700043EA0603A4F10C040294009CCDE900B4F5
:1014800000F01AF903B0BDE8F08F00200146F9E73B
:10149000C10F80EAE0700844CA079623002100F0DB
:1014A0009FB896230022114600F09AB80EB540F27C
:1014B000334102910021CDE900110A460B4600F0AC
:1014C000FBF803B000BD20F00040C10DC0F31600D2
:1014D00040F400007F2901DA00207047962903DCE0
:1014E000C1F19601C8407047963988407047C1F3F2
:1014F0000A5210B5C1F3130140F2FF3341F48011D9
:101500009A4201DA002010BD40F233439A42A2F21F
:10151000334203DC524200F04AF810BD904010BD47
:1015200030B50B46014600202022012409E021FAB3
:1015300002F59D4205D303FA02F5491B04FA02F5B0
:101540002844151EA2F10102F1DC30BD2DE9F05F47
:101550000546002092469B46884606468146402422
:101560001BE0284641464746224600F020F85346F5
:101570005A46C01A914110D311461846224600F02F
:1015800081FA2D1A67EB01084F46224601200021FF
:1015900000F078FA17EB00094E41201EA4F1010477
:1015A000DFDC484631462A464346BDE8F09F202A04
:1015B00004DB203A21FA02F00021704721FA02F3FD
:1015C000D040C2F1200291400843194670470029DB
:1015D000A8BF7047401C490008BF20F001007047B9
:1015E00010B4B0FA80FC00FA0CF050EA010404BF19
:1015F00010BC704749B1CCF1200421FA04F411FA6F
:101600000CF118BF012121430843A3EB0C01CB1DB2
:101610004FEA00614FEA102042BF002010BC704723
:1016200000EBC35010440029A4BF10BC7047401CFD
:10163000490008BF20F0010010BC7047F0B400283A
:1016400002DCF0BC00207047C0F3C751C0F31600A5
:1016500040F40000CA0701D14000491E3F2202EBBE
:101660006105002211464FF4000626FA01F31344E7
:10167000D418844201D8001B1A464000491C17297F
:10168000F3DD5100814202D24FF0FF3100E0002132
:1016900002EBC550F0BCFFF79ABF10B5141E73F1F2
:1016A000000408DA401C41F1000192185B411A4322
:1016B00001D120F0010010BD2DE9F04D92469B466E
:1016C00011B1B1FA81F202E0B0FA80F22032904614
:1016D00000F0D8F904460F4640EA0A0041EA0B013F
:1016E00053465A46084313D0114653EA010019D015
:1016F000C8F140025046FFF75AFF05460E465046D5
:101700005946424600F0BEF9084305D0012004E0E6
:1017100020463946BDE8F08D0020054346EAE076D4
:101720002C4337430A986305E40AA0EB0800002223
:10173000FD0A44EA47540A3002D500200146E9E791
:10174000010510196941DDE9084500196941BDE845
:10175000F04DA2E72DE9FE4F804681EA0300C00F5D
:101760000C46009021F0004123F00045B8EB020048
:10177000A94105D24046214690461C460B460246EA
:1017800023F00040104347D0270DC7F30A00C3F3EE
:101790000A510290401A019040286BDAC3F31300FB
:1017A00040F4801B0098924620B10023D2EB030A3C
:1017B00063EB0B0B01985946C0F14002504600F014
:1017C00061F906460D4650465946019A00F069F9FE
:1017D00010EB08006141002487EA115284EAE773A4
:1017E0001A4340D0009A62B3019A012A4FEA075285
:1017F00015DC001B61EB02014FF0004202EA0752C8
:10180000CDE90042001C41F5801132462B46FFF71E
:1018100053FF03B0BDE8F08F40462146F9E7001BB7
:1018200061EB0201001C41F5801300185B41201898
:10183000A2F5001747EB030140EAD570B6196D41D8
:1018400011E06D084FEA360645EAC0754FEA0752C7
:10185000001B61EB0201001C41F5801149084FEAB1
:1018600030000019514132462B4603B0BDE8F04F1D
:10187000FFF713BF0098012240000023D0EB0202C3
:1018800063EBE073009821464FEAE074B8EB000088
:1018900061EB0401E9E783F000435BE781F000417D
:1018A00058E72DE9F04D81EA030404F0004B21F0E4
:1018B000004514464FF0000A23F0004150EA0502AB
:1018C00020D054EA01021DD0C5F30A570246C5F3E1
:1018D0001303C1F31300C1F30A5640F4801543F417
:1018E0008013A7EB0608101BD64608F2FD3873EBF1
:1018F000050002D308F1010801E092185B41B8F13C
:10190000000F03DA00200146BDE8F08D00204FF4FF
:101910008011064684460EE0171B73EB050705D3BE
:10192000121B63EB050306434CEA010C49084FEA1E
:10193000300092185B4150EA0107EDD152EA0300F2
:1019400012D082EA040083EA0501084305D0101B87
:10195000AB4106D20122002306E000224FF00043F3
:1019600002E06FF0010253101AEB06004CEB085135
:1019700010EB0A0041EB0B01BDE8F04DFFF78DBE07
:1019800070B521F0004303430CD0C1F30A55002485
:10199000D5EB040564EB0403D617AD1AB34102DBA3
:1019A0000020014670BD201841EB025170BD0EB5FC
:1019B000C10F80EAE0700844CA07002140F23343B7
:1019C0008DE80E000A460B46FFF776FE03B000BD19
:1019D000C1F30A52C1F3130140F2FF3341F4801105
:1019E0009A4202DA00200146704740F233439A429D
:1019F000A2F2334202DC5242FFF7D9BD00F042B8F6
:101A000030B5041E71F1000404DB4FF00044404285
:101A100064EB0101141E73F1000405DB1C464FF05A
:101A20000043524263EB04038B4208BF824230BD45
:101A300030B5041E71F1000404DB4FF00044404255
:101A400064EB0101141E73F1000405DB1C464FF02A
:101A50000043524263EB0403994208BF904230BDF9
:101A6000064C074D06E0E06840F0010394E80700EB
:101A700098471034AC42F6D3FEF75EFB4060000896
:101A800060600008202A04DB203A00FA02F10020FE
:101A900070479140C2F1200320FA03F319439040AC
:101AA0007047202A06DBCB17203A41FA02F043EABE
:101AB000E07306E041FA02F3D040C2F12002914007
:101AC00008431946704770B58C1810F8015B15F083
:101AD000070301D110F8013B2A1106D110F8012BA0
:101AE00003E010F8016B01F8016B5B1EF9D12B07C5
:101AF00005D40023521E0DD401F8013BFAE710F87B
:101B0000013BCB1A921C03E013F8015B01F8015B67
:101B1000521EF9D5A142D8D3002070BD704770473E
:101B200021B1826842F00102826003E0826822F003
:101B300001028260704721B1826842F48072826043
:101B400003E0826822F480728260704700B599B029
:101B50004FF4404000F0FCFF0121084601F004F87A
:101B6000012140F6042001F01FF80220ADF86000CA
:101B700000208DF8630018A9444800F015FC05A862
:101B800001F058FA5A20ADF818006420ADF814009E
:101B90000020ADF81A00ADF8160005A93C4801F088
:101BA000F7F96020ADF804000120ADF80600102020
:101BB000ADF80A000220ADF80C0001A9344801F08C
:101BC0009BF90121324801F088F9324800F05CF9B4
:101BD000314808903148099000200A904FF47A501B
:101BE0000B9000200C9080200D9040000E90800003
:101BF0000F9020201090000211900020129008A950
:101C0000244800F0FDF90121224800F031F90020BC
:101C100013908DF850008DF851001590169001200A
:101C20008DF85C0013A91C484C3800F04DF80523D2
:101C30000122114618484C3800F06EF80121164870
:101C40004C38FFF778FF012113484C38FFF768FF45
:101C500011484C3800F0BCF800BF0F484C3800F079
:101C600029F80028F9D10C484C3800F0C1F800BF21
:101C700009484C3800F014F80028F9D10121064831
:101C80004C3800F0AAF819B000BD0000000801406F
:101C9000002C0140080002404C240140DC010020DF
:101CA000014600208A6802F004020AB1012000E027
:101CB00000207047014600208A6802F008020AB13D
:101CC000012000E00020704730B5024600200023CC
:101CD00050680F4C20400D790C6844EA05242043DD
:101CE000506090680B4C2040D1E902542C434D7950
:101CF00044EA450420439060D06A20F470000C7CD4
:101D0000641EE4B2234340EA0350D06230BD0000B9
:101D1000FFFEF0FFFDF7F1FFF0B504460D46002091
:101D20000021092D11DDE068A5F10A0606EB460742
:101D3000072606FA07F18843A5F10A0606EB4606D0
:101D400003FA06F10843E0600CE0206905EB450763
:101D5000072606FA07F1884305EB450603FA06F164
:101D600008432061072A0FDA606B561E06EB8607D0
:101D70001F2606FA07F18843561E06EB860605FA6B
:101D800006F10843606322E00D2A0FDA206BD61FAC
:101D900006EB86071F2606FA07F18843D61F06EBD7
:101DA000860605FA06F10843206310E0E06AA2F116
:101DB0000D0606EB86071F2606FA07F18843A2F1F7
:101DC0000D0606EB860605FA06F10843E062F0BD53
:101DD000816841F008018160704721B1826842F456
:101DE000A002826003E0826822F4A0028260704751
:101DF000816841F004018160704700B585B0684694
:101E000000F0EEFE019805B000BD000010B500F036
:101E1000DBFE00F0A1FA01F019F906A001F072F959
:101E200003F048F903F0F6F900F060FCFFF78EFECE
:101E300010BD000073746172740000007047704739
:101E400070477047704770477047704770477047DA
:101E50007047000000F0805111B10349086001E0B3
:101E6000024948607047000004040240000002403C
:101E700021B1026842F00102026003E0026822F030
:101E80000102026070470000016821F00101016059
:101E90000021016041608160C1604C49884208D1E5
:101EA0004A490839496841F00F01484A083A5160E7
:101EB0008AE046491431884208D1444908394968C2
:101EC00041F0F001414A083A51607DE03F49283134
:101ED000884208D13D490839496841F470613B4A5C
:101EE000083A516070E039493C31884208D137499D
:101EF0000839496841F47041344A083A516063E056
:101F000032495031884208D130490839496841F492
:101F100070212E4A083A516056E02C4964318842BB
:101F200008D12A490839496841F47001274A083A1A
:101F3000516049E025497831884208D12349083960
:101F4000496841F07061214A083A51603CE02049FB
:101F5000884206D1011F096841F00F01021F11607C
:101F600032E01B491431884208D11949091F096818
:101F700041F0F001164A121F116025E01449283182
:101F8000884208D11249091F096841F47061104A5A
:101F9000121F116018E00E493C31884208D10C49EB
:101FA000091F096841F47041094A121F11600BE0D2
:101FB00007495031884207D10549091F096841F492
:101FC0007021034A121F1160704700000800024090
:101FD0000804024001460020002201F0805313B1A2
:101FE000054B1A6801E0054B1A6802EA01030BB1C0
:101FF000012000E000207047000402400000024081
:1020000010B50022026847F6F0739A430C6A8B6899
:1020100023430C6923434C6923438C692343CC69D4
:1020200023434C6A23438C6A23431A430260CB68E0
:1020300043600B6883604B68C36010BD7047704796
:102040007047704770477047704700000149C8608B
:10205000704700000020024030B5054604244FF4CC
:10206000302000F075F80446042C19D10D480069A1
:1020700040F002000B49086108464561006940F0E4
:10208000400008614FF4302000F062F80446052C4F
:1020900006D00448006941F6FD7108400149086115
:1020A000204630BD0020024004200B49C96801F0E1
:1020B000010109B101200EE00749C96801F00401DE
:1020C00009B1022007E00449C96801F0100109B113
:1020D000032000E004207047002002407047000009
:1020E0000348006940F08000014908617047000022
:1020F0000020024070B505460E460424E00200F0C0
:1021000027F80446042C13D10A48006940F0010066
:10211000084908612E80E00200F01AF80446052CF8
:1021200006D00448006941F6FE7108400149086183
:10213000204670BD00200240024803494860034821
:10214000486070472301674500200240AB89EFCD0E
:1021500000B502460423FFF7A7FF034603E0FFF79D
:10216000A3FF0346521E012B01D1002AF7D102B969
:102170000523184600BD704700B597B00120ADF8A3
:10218000580010208DF85B0003208DF85A0016A926
:10219000274800F009F90121254800F099F94CF28F
:1021A0003370ADF8580018208DF85B0016A921484F
:1021B00000F0FAF84FF68070ADF8580016A91E48E6
:1021C00000F0F2F841F20100ADF8580016A91B48E2
:1021D00000F0EAF800200190029002200390002015
:1021E0000490059006900790062008900020099022
:1021F0000A9010200B9000200C900D900E900F90E4
:102200004FF480501090002011901290139001A86C
:10221000149015900121080200F0A6FC08A800F017
:1022200029F80121062000F00BF817B000BD0000CE
:10223000000C014000140140001801400020014042
:1022400051B18200A2F1C042126842F00103820043
:10225000A2F1C042136009E08200A2F1C0421268FC
:10226000034B1A408300A3F1C0431A60704700007B
:10227000FEFF0F00D0E901121143C2681143026949
:1022800011434269114382691143C2691143026AD1
:102290001143426A1143826A1143C26A11430268C0
:1022A0009200A2F1C0421160816808290BD1016837
:1022B0008900A1F1C041096841F04002016889002C
:1022C000A1F1C0410A60016B0968026B526841EAE2
:1022D0000211026B926841EA0221026B928941EA83
:1022E0000241026B128A41EA0251026B127D41EAFD
:1022F0000261026B926911430268521C9200A2F1C2
:10230000C0421160816AB1F5804F1BD1416B0968F1
:10231000426B526841EA0211426B926841EA022123
:10232000426B128A41EA0251426B127D41EA02611C
:10233000426B9269114302689200A2F1C042C2F856
:10234000041107E06FF0704201688900A1F1C041FB
:10235000C1F804217047000008B5C020ADF80000A6
:1023600010208DF8030003208DF8020069460B4809
:1023700000F01AF84FF40150ADF800006946084823
:1023800000F012F83C20ADF8000048208DF8030062
:102390006946044800F008F808BD0000001001403C
:1023A00000140140001801402DE9F04102460025CB
:1023B0000026002000230024002791F803C00CF021
:1023C0000F0591F803C00CF0100CBCF1000F03D006
:1023D00091F802C04CEA050591F800C0BCF1000F6D
:1023E00031D0146800202BE04FF0010C0CFA00F300
:1023F000B1F800C00CEA03069E4220D183004FF0E2
:102400000F0C0CFA03F7BC4305FA03FC4CEA040476
:1024100091F803C0BCF1280F06D14FF0010C0CFA63
:1024200000FCC2F814C00AE091F803C0BCF1480FE8
:1024300005D14FF0010C0CFA00FCC2F810C0401C92
:102440000828D1D31460B1F800C0BCF1FF0F34DD0F
:10245000546800202EE000F1080C4FF0010808FA43
:102460000CF3B1F800C00CEA03069E4221D18300B0
:102470004FF00F0C0CFA03F7BC4305FA03FC4CEACF
:10248000040491F803C0BCF1280F05D100F1080C39
:1024900008FA0CF8C2F8148091F803C0BCF1480F98
:1024A00007D100F1080C4FF0010808FA0CF8C2F847
:1024B0001080401C0828CED35460BDE8F08102464D
:1024C000002093680B400BB1012000E00020704712
:1024D000416170470AB1016100E04161704738B560
:1024E000044620890090E388A2886188208800F053
:1024F000AFF838BD2DE9F047044688460025002690
:10250000002753E018F805007E2828DDA18806F191
:10251000180081420ADA002607F1190087B2E18823
:1025200007F11800814201DABDE8F08707F1020CDB
:10253000B4F80290CC441FFA8CF106F1010CB4F807
:102540000090CC441FFA8CF0638908EB050200F080
:102550008FFA06F1190086B2A81C85B226E0A18880
:1025600006F10C00814209DA002607F1190087B252
:10257000E18807F11800814200DAD5E707F1020C83
:10258000B4F80290CC441FFA8CF106F1010CB4F8B7
:102590000090CC441FFA8CF0638918F8052000F0F5
:1025A00099FA06F10D0086B2681C85B218F805008C
:1025B0000028A7D100BFB7E738B504460448008912
:1025C0000090E388A2886188208800F041F838BD37
:1025D0003E0000200FB410B58EB0044612A8009043
:1025E000322101A8009B119A00F054FF01A9204656
:1025F000FFF780FF002000900EB010BC5DF814FBC8
:102600007047704770477047F0B504460D46164650
:102610000C488088A04203DD0A48C088A84200DC3C
:10262000F0BD09480078012804D12F462546C7F19E
:10263000F00084B22946204600F0DAF9034806800B
:1026400000BFEDE73E000020C20100200008006C42
:102650002DE9F04705460E4614461F46DDF820A03A
:1026600028191F498988884203DD1D488088401B3E
:1026700084B2F0191A49C988884203DD1848C08815
:10268000801B87B217480078012809D1A0463C4634
:102690001FFA88F7B0462E46C8F1F000001B85B23D
:1026A0003B4622463146284600F0C8F931462846C6
:1026B00000F09EF904FB07F84FF0000904E00A4817
:1026C000A0F800A009F10109C145F8D34FF4A073A7
:1026D000F0220021084600F0B1F9BDE8F0870000C3
:1026E0003E000020C20100200008006C08B5FFF782
:1026F00043FDE320BD49088043F20800891C08809F
:10270000E720891E08801220891C0880EF20891E7E
:10271000088041F23120891C08800020891E088031
:102720000120891C0880891E08800002891C0880FD
:102730000220891E08804FF4E060891C0880032075
:10274000891E088041F23000891C08800420891EFF
:1027500008800020891C08800820891E088040F21B
:102760000220891C08800920891E08800020891CFD
:1027700008800A20891E08800020891C08800C20FF
:10278000891E08800020891C08800D20891E088071
:102790000020891C08800F20891E08800020891CC9
:1027A00008801020891E08800020891C08801120C4
:1027B000891E08800720891C08801220891E088035
:1027C0000020891C08801320891E08800020891C95
:1027D0000880142001F054FB10208449088041F245
:1027E0009060891C08801120891E088040F22720F3
:1027F000891C0880322001F05FFB12207B49088091
:102800001C20891C0880322001F056FB13207749D8
:1028100008804FF4C050891C08802920891E088038
:102820001420891C08802B20891E08800D20891CFB
:102830000880322001F040FB20206C4908800020F5
:10284000891C08802120891E08800020891C08809E
:102850003020891E08800720891C08803120891EAD
:10286000088040F20230891C08803220891E0880CE
:1028700040F20510891C08803520891E088040F22E
:102880000620891C08803620891E088040F6080032
:10289000891C08803720891E088040F20620891C88
:1028A00008803820891E088040F20450891C088066
:1028B0003920891E08800720891C08803C20891E39
:1028C000088040F20510891C08803D20891E088080
:1028D00040F60800891C08805020891E08800020CE
:1028E000891C08805120891E0880EF20891C0880DF
:1028F0005220891E08800020891C08805320891ED0
:10290000088040F23F10891C08806020891E0880E2
:102910004FF42740891C08806120891E088001200F
:10292000891C08806A20891E08800020891C088074
:102930008020891E08800020891C08808120891E33
:1029400008800020891C08808220891E08800020C1
:10295000891C08808320891E08800020891C08802B
:102960008420891E08800020891C08808520891EFB
:1029700008800020891C08809020891E0880102073
:10298000891C08809220891E08800020891C0880EC
:102990009320891E08800320891C08809520891EA9
:1029A00008804FF48870891C08809720891E088051
:1029B0000020891C08809820891E08800020891C1E
:1029C00008800720891E088040F23310891C088087
:1029D000012000F01BF84FF4FC60F0234FF4A072CC
:1029E000002100900846FFF733FE08BDFE07006C8B
:1029F0002022054B1A809A1C108021221A809A1CD2
:102A0000118022221A807047FE07006C0949087065
:102A10000978012906D14FF4A071074A9180F0216D
:102A2000D18005E0F021044A91804FF4A071D1805B
:102A300070470000C20100203E00002030B5502445
:102A40000A4D2C80AC1C208051242C808418641EDC
:102A5000AD1C2C805224AD1E2C80AC1C2180532434
:102A60002C80CC18641EAD1C2C8030BDFE07006C81
:102A70002DE9F05F0746884691469A46484601F0A0
:102A800045FC8346002521E000241BE0002615E0DC
:102A900005EB45005844005DC6F107020121914055
:102AA000084048B108EB050291B207EBC40232447A
:102AB00090B25246FFF7A8FD701CC6B2082EE7DBA5
:102AC000601CC4B2032CE1DB681CC5B2182DDBDB33
:102AD000BDE8F09F2DE9F04F89B007468846914642
:102AE0009A46A9F1200000EBC000800000F5102BF1
:102AF00024226946584602F02DFB002521E00024DF
:102B00001BE0002615E00DEB040005EB4501405CE1
:102B1000C6F1070201219140084040B108EBC40210
:102B2000324491B27A1990B25246FFF76DFD701C93
:102B3000C6B2082EE7DB601CC4B2032CE1DB681CC4
:102B4000C5B20C2DDBDB09B0BDE8F08F704700008B
:102B500001460020034A506820F44040084350607A
:102B6000704700000010024029B1064A5269024332
:102B7000044B5A6104E0034A52698243014B5A6193
:102B8000704700000010024029B1064AD269024392
:102B9000044BDA6104E0034AD2698243014BDA61F3
:102BA000704700000010024029B1064A92690243B2
:102BB000044B9A6104E0034A92698243014B9A6193
:102BC000704700000010024010B5012145F27D3031
:102BD000FFF7EAFF01210846FFF7C6FF10BD00001E
:102BE00030B500210022002400232D4D6D6805F032
:102BF0000C0121B1042905D0082923D105E0294D74
:102C0000056022E0274D05601FE0254D6D6805F445
:102C10007012234D6D6805F48034022505EB924255
:102C20001CB9214D554305600BE01D4D6D6805F441
:102C300000351DB11C4D5543056002E0194D55434B
:102C4000056002E0174D056000BF00BF144D6D68C0
:102C500005F0F0010909154D6B5C0568DD40456024
:102C60000F4D6D6805F4E061090A104D6B5C456815
:102C7000DD4085600A4D6D6805F46051C90A0B4D51
:102C80006B5C4568DD40C560054D6D6805F44041ED
:102C9000890B074D6B5CC568B5FBF3F5056130BD6D
:102CA0000010024000127A0000093D00C30100201C
:102CB000D3010020704770477047704770477047D6
:102CC000704721B1028842F04002028004E002888D
:102CD0004FF6BF731A400280704770B504460D4628
:102CE00000BF0221204600F012F80028F9D0294642
:102CF000204600F018F800BF0121204600F007F838
:102D00000028F9D0204600F00BF8C0B270BD024692
:102D1000002013890B400BB1012000E00020704718
:102D20000146888970478181704710B5002202886A
:102D300002F441520B884C8823438C882343CC886F
:102D400023430C8923434C8923438C892343CC8917
:102D500023431A430280838B4FF2FF742340838303
:102D60000B8A038210BD10B500F002F810BD000000
:102D70000CB50020019000903348006840F480308A
:102D80003149086000BF3048006800F4003000900E
:102D90000198401C0190009818B90198B0F5A06FF7
:102DA000F1D12948006800F4003010B101200090F2
:102DB00001E0002000900098012843D123480068DA
:102DC00040F01000214908600846006820F0030028
:102DD00008600846006840F0020008601A48406831
:102DE000194948600846406848600846406840F411
:102DF000806048600846406820F47C1048600846BF
:102E0000406840F4E81048600846006840F0807070
:102E1000086000BF0C48006800F000700028F9D07E
:102E20000948406820F003000749486008464068A8
:102E300040F00200486000BF0348406800F00C000A
:102E40000828F9D10CBD000000100240002002400B
:102E500010B51148006840F001000F4908600846AD
:102E600040680E4908400C494860084600680C4913
:102E70000840094908600846006820F4802008607E
:102E80000846406820F4FE0048604FF41F00886048
:102E9000FFF769FF10BD0000001002400000FFF8BE
:102EA000FFFFF6FE704770477047704770477047E6
:102EB000704770477047704770477047704770475A
:102EC000704721B1028842F00102028004E00288CA
:102ED0004FF6FE731A400280704731B1B0F84420BB
:102EE00042F40042A0F8442005E0B0F84420C2F3C8
:102EF0000E02A0F84420704770B500240022002381
:102F0000058C4FF6FE7635400584028C8388048B51
:102F10004FF68F752C40B51E2C400D882C43751E26
:102F20002A400D892A434D882A43144DA8420BD0CC
:102F3000134DA84208D0134DA84205D0124DA84207
:102F400002D0124DA84213D14FF6F7752A404D8991
:102F50002A434FF6FB752A408D882A434FF6FF65BA
:102F60002B404FF6FF552B408D892B43CD892B43AA
:102F700083800483CD888586028470BD002C014047
:102F8000003401400040014000440140004801403D
:102F9000002202881D4B98420ED01D4B98420BD048
:102FA000B0F1804F08D01B4B984205D01A4B984285
:102FB00002D01A4B984204D14FF68F731A404B88B7
:102FC0001A43174B984207D0164B984204D04FF63D
:102FD000FF431A40CB881A4302808B8883850B8875
:102FE00003850A4B98420BD0094B984208D00E4BF0
:102FF000984205D00D4B984202D00D4B984201D11A
:103000000B7A03860123838270470000002C014065
:10301000003401400004004000080040000C004063
:1030200000100040001400400040014000440140F6
:10303000004801404FF6FF71818000210180C1806E
:1030400041800172704770477047704700B585B086
:103050004FF40070ADF8100018208DF81300032015
:103060008DF8120004A91948FFF79EF94FF480600B
:10307000ADF8100004208DF8130004A91348FFF7E1
:1030800093F94FF4E13000900020ADF80400ADF862
:103090000600ADF80800ADF80C000C20ADF80A00F1
:1030A00069460B4800F088F8012240F22551084893
:1030B00000F05DF801228021054800F04FF8012161
:1030C000034800F03FF805B000BD000000080140D3
:1030D000003801400FB408B503A800904FF4807188
:1030E0000648009B029A00F0D5F90449044800F014
:1030F000DDF80020009001B05DF814FB2CAA002040
:10310000003801400FB408B503A800904FF4807157
:103110000848009B029A00F0BDF900200090054984
:10312000054800F0C3F805A1034800F0BFF801B05E
:103130005DF814FB2CAA0020003801400D0A0000A5
:103140007047704721B1828942F40052828104E0C5
:1031500082894DF6FF731A40828170471AB1838AC3
:103160000B43838202E0838A8B4383827047F0B5EE
:103170000346002400260025002040F66A17B942C5
:1031800000D100BF1846C1F3421401F01F06012709
:1031900007FA06F5012C01D10C3004E0022C01D114
:1031A000103000E014301AB107682F43076002E0C6
:1031B0000768AF430760F0BD2DE9F04786B00546CC
:1031C0000E460024A24600BFA1460027B08900B1E8
:1031D00000BF2F462C8A4CF6FF700440F088044351
:1031E0002C82AC894EF6F3100440B0883189084334
:1031F000718908430443AC81AC8A4FF6FF40044018
:10320000B0890443AC8201A8FFF7EAFC1F4887425B
:1032100002D1DDF810A001E0DDF80CA0A88900F4CF
:10322000004040B10AEBCA0000EB0A1031684900C7
:10323000B0FBF1F807E00AEBCA0000EB0A103168B6
:103240008900B0FBF1F86420B8FBF0F0040120091C
:10325000642101FB1089A88900F4004040B13220AC
:1032600000EBC900B0FBF1F000F00700044308E0F8
:10327000322000EB09106421B0FBF1F000F00F00E8
:1032800004432C8106B0BDE8F087000000380140FF
:1032900000BF054A128802F08002002AF9D0C1F36B
:1032A00008028280704700000038014070B5064671
:1032B0000C46002505E0615D3046FFF7E9FF681C1C
:1032C00085B2605D0028F6D170BD70472DE9FF4FD3
:1032D00083B0044615464FF0000C002290469146FC
:1032E00000269346CDF800B0B3F804E0D3F800B060
:1032F000F344CDF808B0B3F804E0D3F800B0ABEB7A
:103300000E0BCDF804B0002008E04FF0000B45F89C
:1033100030B005EBC00ECEF804B0401C0328F4D347
:103320000020ADE0DDF800B00BF1010BCDF800B0EE
:103330004FF0000A00211AE004EB400B3BF811B0FB
:10334000D3F800E0F34508D904EB400B3BF811B08B
:10335000D3F800E0ABEB0E0B07E004EB400B3BF8BF
:1033600011B0D3F800E0AEEB0B0BDA44491CA029F6
:10337000E2D30027002132E004EB400B3BF811E0E0
:10338000DDF808B0DE4502D34FF0020C09E004EB93
:10339000400B3BF811E0DDF804B0DE4501D24FF000
:1033A000010C04EB400B0BEB410BBBF802E0DDF82A
:1033B00008B0DE4504D3BCF1010F0FD17F1C0DE036
:1033C00004EB400B0BEB410BBBF802E0DDF804B063
:1033D000DE4503D2BCF1020F00D17F1C491C9F299E
:1033E000CAD3D3F808B0D34503D3B3F806B0BB456E
:1033F0001CD212B90122904641E0012A10D108F1F5
:10340000010B1FFA8BF8B8F1080F38DB022204EB2E
:10341000400BABF58C6B45F836B04FF000082EE052
:10342000032A2CD14FF00009022228E0022A03D1FE
:1034300003224FF0010922E0032A1BD109F1010BFD
:103440001FFA8BF9B9F10B0F19DB002204EB400BCB
:10345000ABF5B46B05EBC60ECEF804B006F1010B6C
:103460000BF0FF06032E02D107B0BDE8F08F4FF03E
:10347000000904E0012A02D14FF000080022503078
:10348000DDF810B0ABF1A00B83453FF64BAF00BFAA
:10349000EAE770477CB5044600201D461646002921
:1034A0000BD0491ECDE90041044B6A4629463046FF
:1034B00000F044F9009A002111707CBD6B3E0008B9
:1034C0002DE9F0414F1E00EBC7010446D1E9000190
:1034D00015461E4637F006020DD02A463346FDF744
:1034E00065FF7F1E04EBC703D3E90023FEF732F923
:1034F00037F00602F1D1022F25D0042F13D0062F6A
:1035000018BFBDE8F0812A463346FDF74FFFD4E9E6
:103510000A23FEF71FF92A463346FDF747FFD4E991
:103520000823FEF717F92A463346FDF73FFFD4E993
:103530000623FEF70FF92A463346FDF737FFD4E995
:103540000423FEF707F92A463346FDF72FFFD4E997
:103550000223FEF7FFF82A463346FDF727FFD4E99A
:103560000023BDE8F041FEF7F5B800000022134645
:1035700010460149FEF795B90000F03F0122FEF721
:10358000FFB90022134610461146FEF78AB902E041
:1035900008C8121F08C1002AFAD1704770470020DE
:1035A00001E001C1121F002AFBD1704701490860E8
:1035B00070470000D80100202DE9FF5F82B0002194
:1035C000DDE90430020DDDF840B0034318D044F6C5
:1035D0001050A2F2FF3242431514119801281FD057
:1035E000A5EB0B00401C5FEA000A4FF000064E4FAF
:1035F000DFF83891B046504615D5CAF1000413E003
:10360000119801244AA3012801D16FEA0B01029805
:10361000119AC0E90031C0E9024206B0BDE8F09F4E
:10362000CBF10000DFE704460021404A491842EB95
:103630000450CDE9001012E0E00707D032463B46C7
:1036400040464946FDF7B2FE8046894632463B4633
:1036500010461946FDF7AAFE06460F466410002CD8
:10366000EAD1DDE90401DDE90023BAF1000F06DA51
:10367000FDF79CFE42464B46FDF798FE05E0FEF73F
:1036800010F942464B46FEF70CF904460E4600225E
:10369000284BFEF7CDF903D84FF0FF30014607E085
:1036A0000022254B20463146FEF754F8FEF790F9EC
:1036B000102409E0002C0ADB0A220023FDF746FF54
:1036C000039B30321A55641E50EA0102F2D1641C89
:1036D000039AC4F111031444119A012A03D0012260
:1036E00008430DD10AE0084304D000204FF0110B2D
:1036F000119072E7A3EB0B056D1E0DE05B4504DD39
:103700004FF0000205F1010504E003DA4FF000027A
:10371000A5F10105002AECD002981199C0E9023107
:10372000C0E9004579E70000000014400000F03FC8
:10373000300000000000F0430000E03F2DE9FF4FA3
:1037400095B09B468946064600250FE2252877D18D
:1037500000242746F84A0121059400E0044316F8A6
:10376000013F203B01FA03F01042F7D130782A28BC
:1037700011D06FF02F033078A0F13002092A16D84B
:10378000059A44F0020402EB820203EB4202104469
:10379000761C0590EFE759F8042B0592002A03DA0E
:1037A000504244F40054059044F00204761C3078F2
:1037B0002E2816D116F8010F44F004042A280DD043
:1037C0006FF02F023078A0F13003092B09D807EBF6
:1037D000870302EB4303C718761CF3E759F8047B11
:1037E000761C30786C280FD006DC4C2817D068285F
:1037F0000DD06A2814D104E0742810D07A280FD193
:103800000DE044F400140AE044F4801401E044F4B0
:1038100040147278824202D104F58014761C761C22
:10382000307866280BD013DC582877D009DC0028C4
:1038300075D04528F6D04628F4D047281AD19DE106
:1038400018E0632835D0642879D0652812D195E135
:10385000702873D008DC6728F1D069286FD06E28F3
:103860000DD06F2806D1B5E073282CD0752875D0FF
:10387000782874D05A46179990476D1C75E1C4F3A7
:103880000250022809D003280DD0D9F800100428CE
:103890000DD00D6009F1040967E1D9F80010EA17AD
:1038A000C1E90052F6E7D9F800100D80F2E70D707B
:1038B000F0E719F8041B8DF8001000208DF80100C6
:1038C000EA46012003E059F804AB4FF0FF306107EE
:1038D0004FF0000102D40DE008F101018846B94221
:1038E0000FDA8045F8DB1AF808100029F4D108E057
:1038F00008F1010188468142FADB1AF80810002914
:10390000F6D105985B46A0EB080721463846179A82
:1039100000F094FA284400EB080507E04DE029E1A7
:103920000DE01AF8010B5A4617999047B8F10108B3
:10393000F7D25B4621463846179A13E142E00A2245
:103940000092C4F302524FF0000A022A08D059F83C
:1039500004CB032A4FEAEC710AD00DE029E02AE0FB
:1039600009F1070121F00702F2E802C1914609E0DE
:103970000FFA8CFC4FEAEC71042A03D14FFA8CFC4D
:103980004FEAEC71002907DA0A460021DCF1000C4D
:1039900061EB02012D2202E0220504D52B228DF8D5
:1039A0000420012203E0E20701D02022F7E790463D
:1039B00059E00A2102E010220DE010214FF0000A28
:1039C00000910BE010224FF0000A44F00404082795
:1039D000009203E008224FF0000A0092C4F3025262
:1039E000022A05D059F804CB0021032A08D009E0A7
:1039F00009F1070121F00702F2E802C1914605E052
:103A00001FFA8CFC042A01D10CF0FF0C4FF00008C7
:103A1000220728D5702806D0009B83F0100353EAB4
:103A20000A0305D00EE040228DF80420012208E0B0
:103A30005CEA010206D030228DF804208DF80500E2
:103A400002229046009B83F0080353EA0A030AD13E
:103A50005CEA010201D1620705D530228DF804200D
:103A60004FF001087F1E582804D034A003900EA800
:103A700002900DE036A0F9E753466046009AFDF744
:103A800065FD84460398825C0298401E0290027095
:103A90005CEA0100F0D1029806A9081A00F1200A98
:103AA000600702D524F4803400E00127574502DD89
:103AB000A7EB0A0000E0002000EB0A010090059847
:103AC0004144401A0590E00306D45B462146179A0C
:103AD000059800F0B3F90544002706E001A85A460E
:103AE000C05D179990476D1C7F1C4745F6DBE003CE
:103AF0000CD55B462146179A059800F09FF90544BE
:103B000004E030205A46179990476D1C0099481ED2
:103B100000900029F5DC08E0029802995A460078E6
:103B2000491C0291179990476D1CBAF10001AAF146
:103B3000010AF1DC65E1000009280100303132336F
:103B400034353637383961626364656600000000D9
:103B500030313233343536373839414243444546C3
:103B60000000000000F058F90544761C3078002869
:103B70007FF4ECAD19B02846BDE8F08F620700D4A1
:103B8000062709F1070222F0070CFCE80223E146B0
:103B900003F000485FEA080C02D00FF2702C0DE031
:103BA0005FEA045C02D50FF2682C07E05FEAC47C90
:103BB00002D00FF2602C01E0AFF2700C4FF0FF3832
:103BC00023F00043CDF850C065280CD006DC452812
:103BD00009D046281DD047283DD13DE0662818D0A1
:103BE00067287ED138E00021112F01DB112000E091
:103BF000781CCDE9000106A90EA8FFF7DDFCDDE980
:103C00000F010E9A03910021009207F1010A04911D
:103C10004DE04FF000400097CDE9011006A90EA835
:103C2000FFF7CAFCDDE90F0203920E9B11990022F7
:103C3000DDF80CA00093049211B9791C00EB010A85
:103C4000B7EB0A0004D4C0F1FF3007F1010A049079
:103C5000AAEB0700019044E0012F00DA01270021C0
:103C6000112F01DD112000E03846CDE9000106A941
:103C70000EA8FFF7A1FCDDE90F010E9A03910021C8
:103C800004910092BA4621070CD40399514500DAF9
:103C90008A46BAF1010F05DD009AAAF10101515CD3
:103CA000302908D0B84202DA10F1040F06DA0121F7
:103CB000CDE9011015E0AAF10101E9E7002805DCD2
:103CC000049901440491AAEB000102E0411C514512
:103CD00000DD8A460499401A401C01904FF00040D4
:103CE0000290200704D40198504501DBCDF80480F0
:103CF00000208DF84F0002980DF14F07B0F1004FF2
:103D000025D02B200E9002984FF0020800280CDAE4
:103D1000404202902D200E9007E00A210298FDF704
:103D2000FFFB3031029007F8011DB8F10001A8F146
:103D30000108F2DC02980028EFD1791E0E98087075
:103D4000307800F0200040F0450007F8020D12A87E
:103D5000C01B00F107081498007800B1012000EBA7
:103D60000A01019801EBE07105984144401A401E98
:103D70000590E00306D45B462146179A059800F0AB
:103D80005DF805441498007818B15A461799904781
:103D90006D1CE00324D55B462146179A059800F078
:103DA0004DF805441CE00498002807DBDDE9030119
:103DB000884203DD0098405C179901E01799302094
:103DC0005A469047049805F10105401C049001985B
:103DD000401E019004D12E205A46179990476D1C21
:103DE000BAF10001AAF1010ADDDC05E017F8010BC8
:103DF0005A46179990476D1CB8F10001A8F10108C7
:103E0000F4DC5B462146179A0598ABE62D000000CE
:103E10002B000000200000002DE9F04104460025A1
:103E20001E461746880404D405E039462020B047D2
:103E30006D1C641EF9D52846BDE8F0812DE9F041DE
:103E4000044600251E469046C80301D5302700E0F1
:103E50002027880404D505E041463846B0476D1C4C
:103E6000641EF9D52846BDE8F0814A68002A06D0CC
:103E70000A68531C0B6010704868401E4860704709
:103E8000014642F228324A434FF0E0235A610022B1
:103E90009A6101221A6100BF4FF0E022106900F020
:103EA00001021AB100F48032002AF5D000224FF04E
:103EB000E0231A619A617047014601EBC1024FF09D
:103EC000E0235A6100229A6101221A6100BF4FF07B
:103ED000E022106900F001021AB100F48032002AD9
:103EE000F5D000224FF0E0231A619A61704700007C
:103EF00010B5044604EB4401084A02EB8100FEF7CA
:103F0000EEFA621F02EB4202054BD11804EB4402A9
:103F1000024B03EB8200FEF7EDFA10BD4A000020D1
:103F20000000002010B51648FEF7D9FA1548FEF734
:103F3000D6FA15A11348FEF7DDFA12480C30FEF749
:103F4000CEFA14A10F480C30FEF7D4FA0D48183001
:103F5000FEF7C5FA15A10B481830FEF7CBFA094851
:103F60002430FEF7BCFA14A106482430FEF7C2FA4A
:103F70001448FEF7B4FA14A11248FEF7BBFA10BDBC
:103F80003E0000204A000020BBB6D3ADCAB9D3C35F
:103F900000000000B9C2C1A2B4CAD3EFD2F4CAB6BD
:103FA000B1F0B2E2CAD4CFB5CDB30000C4A3B0E53E
:103FB000D1B5C1B700000000D3EFD2F4CAB6B1F05A
:103FC000000000009A010020C9E8BCC6D5DF3ACB4A
:103FD000CEBDA10010B50E48FEF781FA4FF61F01C5
:103FE0000C4800F0E1FF0CA10A48FEF783FA052413
:103FF00004E0E0B2FFF77CFF601C84B2162CF8DD11
:104000000848FEF76CFA08A10648FEF773FA10BDDF
:104010003E0000207A000020BFAACABCD1B5C1B7BB
:10402000000000008E010020B7B5BBD800000000E2
:1040300010B50F48FEF753FA0E48FEF750FA0EA1DE
:104040000C48FEF757FA0B48E430FEF748FA0DA18A
:104050000848E430FEF74EFA0648F030FEF73FFA23
:104060000A48FEF73CFA0AA10848FEF743FA10BDD9
:104070003E0000207A000020D3EFD2F4CAB6B1F09F
:1040800000000000BFAACABC000000008E01002092
:10409000B7B5BBD8000000002DE9F34F83B08246CE
:1040A000BAF802004D490880049840884C490880BD
:1040B0000846008849490988B1EB400F06DC4748AB
:1040C0000088400046490988884204DA4FF0FF30F2
:1040D00005B0BDE8F08F4248008840490988C1EB2F
:1040E0004000032190FBF1F03E4908803B480088E6
:1040F00080003B490988022202FB1100032190FB4A
:10410000F1F0394908800AF104060498071D394680
:10411000304600F013F98146012401250120029068
:1041200000BF681C81B2204600F060F828B9314613
:1041300007F1180000F002F901E04FF0FF3083466C
:10414000611C88B2294600F051F828B906F118011F
:10415000384600F0F3F801E04FF0FF3001906A1CA0
:1041600091B2621C90B200F041F830B906F118012A
:1041700007F1180000F0E2F801E04FF0FF30009086
:10418000DDF800800198804501D9DDF80480D8452C
:1041900000D9D846C1440098804506D11836601C25
:1041A00084B21837681C85B208E0D84503D11837A7
:1041B000681C85B202E01836601C84B20298401C6C
:1041C00080B2029005480088844203DA04480088DF
:1041D0008542A6DB0298B9FBF0F079E73A000020AF
:1041E0003C000020360000203800002010B50246B8
:1041F00019480088824205DA5000801C884210DC91
:10420000012010BD15480088022303FB0100144B58
:104210001B88022404FB1303101D834201DB0120D1
:10422000EFE710480088824205DA4800801C90427F
:1042300010DC0120E5E70A480088022303FB0200A6
:10424000064B1B88022404FB1303081D834201DB79
:104250000120D6E70020D4E7360000203A000020F5
:104260003C000020380000202DE9F05F07460D4695
:10427000B5F5806F02DD0020BDE8F09F002406E068
:1042800037F814001E4941F82400601C84B2AC4287
:10429000F6DB05E000201A4941F82400601C84B2D6
:1042A000B4F5806FF6DB4FF4806215491548FBF7D3
:1042B00049FF00241FE0134830F824000FFA80F86B
:1042C000104850F82400000C06B208FB08F006FB6A
:1042D00006084046FDF7DCF8834600F085FF82467D
:1042E0000949FDF731F88146FDF7EDF8054941F838
:1042F0002400601C84B2B4F5007FDCDB0148BBE71E
:104300002C9A00202C8A00200000204110B5044681
:104310006178A1392278A13AC2EB021303EB421271
:1043200001EB420101EBC101C8004822024900F043
:1043300011FF014810BD00002CAB00202DE9F04713
:1043400006460F464FF00008002408E036F9140036
:1043500037F91410451A05FB0588601CC4B20C2CF3
:10436000F4DB4046FDF79DF8824600F03DFF8146B4
:10437000FDF7A9F880464046BDE8F0872DE9F74FE4
:10438000F2B007468A46D7E90010401AA021C1EBD7
:1043900050005021B0FBF1F0401C80B2069006980E
:1043A000772807DD8AA00699FEF794FE0020AAF878
:1043B000020009E17498006807900AF104094FF0BF
:1043C000000BD7F80080F7E0002421E008EB440060
:1043D00030F8021C0798081AC0EB401101EB80105E
:1043E000642190FBF1F138F814200798101A401A54
:1043F00021907A4830F81410219841434FF47A7094
:1044000091FBF0F000B222A921F81400601C84B2E4
:10441000A02CDBDBA02122A8FFF726FF0646002404
:1044200006E056F82400404346F82400601C84B29D
:10443000B4F5007FF5DB0020099000240DE056F86C
:104440002400674931F8141048436421B0FBF1F0AF
:10445000099908440990601C84B262484088A042CF
:10446000EDDC022522E0002009A941F82500681EA4
:104470005C4931F8104011E056F82400584931F8F1
:10448000141048436421B0FBF1F009A951F825103C
:10449000084409A941F82500601C84B25149681CF0
:1044A00031F81000A042E7DCA81C85B2182DDADB39
:1044B000012522E0002009A941F82500681E49498C
:1044C00031F8104011E056F82400474931F8141033
:1044D00048436421B0FBF1F009A951F825100844C4
:1044E00009A941F82500601C84B23E49681C31F8D6
:1044F0001000A042E7DCA81C85B2162DDADB0020F4
:1045000020903848848D0DE056F82400364931F863
:10451000141048436421B0FBF1F020990844209026
:10452000601C84B2B4F5007FEEDB002517E009A91A
:1045300051F82500FCF7BAFFCDE9000100F05AF868
:1045400000222A4BCDE90201FCF730FFCDE904013E
:10455000FCF7CDFF09A941F82500681C85B2182D8C
:10456000E5DB2348089000251CE0002029F8150011
:10457000002410E009A850F824100898005741437F
:10458000642091FBF0F039F81510084400B229F8C6
:104590001500601C84B2182CECDB089818300890C9
:1045A000681C85B20C2DE0DB09F118090BF1010044
:1045B0001FFA80FB08F1A0087868A0F5A0704045BC
:1045C000BFF402AFAAF802B075B0BDE8F08F0000EA
:1045D00066726D5F6E756D3D256420007055000834
:1045E000E05A0008B0560008E056000800005940A4
:1045F000E05E00082DE9F04DC84A002490B09142D9
:1046000005DA21F00043934201D805D120B110B062
:10461000BDE8F04DFEF7B2BFB1F5801F1BDA53EADB
:10462000000209D0002911DA0120FEF7BFFF10B007
:10463000BDE8F04DFEF7A5BF0220FEF7B7FFFEF77D
:1046400095FF10B081F00041BDE8F08D6FF03504AA
:104650003622FDF795F904EB2152C1F31308B04956
:10466000A2F2FF33414401F4801282F07F6103EB38
:10467000225281F04051009241EA08010022A94BE8
:10468000FDF709F9044608F10200A74EC0F3130034
:104690000D467E44032867D2D6E900232046FDF765
:1046A000AFF91ED10098002802BFD6E9000110B072
:1046B000BDE8F08DFDF77BF907460C469B4A9C4B05
:1046C000FCF774FE06460D469A4A9B4B3846214637
:1046D000FCF76CFE10B032462B46BDE8F04DFDF7FE
:1046E00039B84FF05532954B20462946FCF75EFE0F
:1046F0000022934BFDF7D2F806460F4622462B4682
:1047000010461946FCF752FE32463B46FCF74EFE79
:10471000064600980F46F0B1FDF749F980468A46F3
:10472000824A834BFCF742FE32463B46FDF7B6F821
:1047300022462B46FDF7AFF805460C467D4A7E4BD8
:1047400040465146FCF732FE10B02A462346BDE8EB
:10475000F04DFDF7A0B80B4610B032462046294672
:10476000BDE8F04DFDF797B800224FF0804320469A
:10477000FCF7F0FF02460B4620462946FDF791F86C
:1047800006460F460098FDF712F9CDE904013246BE
:104790003B4610463946FCF709FE0C9069480C9AD6
:1047A0004044019009910B461046FCF7FFFD8246FC
:1047B000024665488B46C8F151080B4608F5D728D4
:1047C00003217844FEF77CFE52465B46FCF7EEFD83
:1047D0000A905E480D9152465B4604217844FEF7EC
:1047E0006FFE099B0C9AFCF7E1FD844601980D9B36
:1047F00040EA080860460A9AFCF7ACFF8346089135
:10480000B8F1000F4EDD4FF0FF3220462946FDF78C
:10481000B7F822462B46FCF7C9FD804600988A4629
:1048200060B3DDE90401414A414BFCF7BFFD09914A
:1048300000905A4640465146089BFCF78BFF324693
:104840003B46FCF7B3FD099B009AFCF783FF424609
:104850005346FDF723F822462B46FDF71CF8044685
:104860000D46DDE90401334A334BFCF79FFD10B0E0
:1048700022462B46BDE8F04DFDF70DB85A4640469E
:10488000089BFCF767FF32463B46FCF78FFD42462C
:104890005346FDF703F810B022462B46BDE8F04D15
:1048A000FCF7FCBF009840B3DDE904011F4A204B30
:1048B000FCF77CFD80468A465A4620462946089BDE
:1048C000FCF7E9FF32463B46FCF770FD4246534693
:1048D000FCF7E1FF22462B46FCF7DDFF04460D46C0
:1048E000DDE90401134A144BFCF760FD10B02246C9
:1048F0002B46BDE8F04DFCF7CEBF0B465A4620468E
:104900002946FCF7C8FF32463B46FCF74FFD10B086
:1049100022462B46BDE8F04DFCF7C0BF0000F07FFB
:10492000645F09000000F03FA2190000763C793571
:10493000EF39EA3D0000E0FE422EE63F5555D53FF7
:104940000000E03F86EBF9FF3A180000381800003D
:10495000FDF75CFA11A0FEF7D5FBFDF74EFA1349FF
:10496000B0FBF1F4214612A0FEF7CCFBFFF7DAFA18
:1049700014A0FEF7C7FB0FE000F0BAFD144800F0EA
:10498000A9FC10B100F086F806E011480C3000F0E8
:10499000A1FC08B100F082F9EEE700005359532062
:1049A000496E6974204F4B210000000040420F0007
:1049B0004350552053706565643A256C64204D481A
:1049C0007A000000646973705F686F6D65000000B5
:1049D000620000202DE9F04F03464FF0F00B91FBF1
:1049E000FBFE0BFB1E1BBBF1000F01D0BDE8F08FDF
:1049F0004FF0F00B91FBFBFA4FF0000C002600206B
:104A000003E033F810B0DC44401C8842F9D3BCFB0F
:104A1000F0F50027002020E04FF00009002418E006
:104A200003EB400B3BF814B0AB4506D903EB400B4E
:104A30003BF814B0ABEB050B05E003EB400B3BF888
:104A400014B0A5EB0B0BD846C84500D9C146474466
:104A5000641CF02CE4D34E44F0308842DCD34FF099
:104A6000A00B91FBFBFBB7FBFBF7B6FBFAF615605F
:104A7000968007EB470B0BEBC70B4FF00A0EBBFB07
:104A8000FEFBC2F808B04FF0020BA2F806B000BF60
:104A9000ACE700002DE9F041002605270024FFF7D0
:104AA00099FA4FF61F01384600F06EFAC1E000F0A7
:104AB0001FFD604800F00EFC78B14FF4FC615E48C9
:104AC00001874FF6E07007EB47015B4A02EB81017B
:104AD0000881FFF727FABDE8F0815748303000F031
:104AE000F9FB002840D09620FFF7CAF906BB5248D0
:104AF0003030FDF7F4FC51A14F483030FDF7FAFC9F
:104B000001264C483038FDF7EAFC4FA149483038BF
:104B1000FDF7F0FC47482438FDF7E1FC45480C3828
:104B2000FDF7DDFC4AA143480C38FDF7E3FC80E0CB
:104B300041483030FDF7D3FC48A13F483030FDF705
:104B4000D9FC002600243B483038FDF735FD3948B4
:104B50002438FDF731FD37481838FDF72DFD35486D
:104B60000C38FDF729FD64E03248303800F0B2FB24
:104B7000002843D0012E41D100F026F92D483038CD
:104B8000FDF7ADFC38A12B483038FDF7B3FC781F9A
:104B9000374901EB803000EB04384146354800F0DE
:104BA000C9F9C0B9601CC4B222480C38FDF797FCA3
:104BB000224631A11F480C38FDF70CFD042C00D112
:104BC00000241C481838FDF78AFC2EA11948183813
:104BD000FDF790FC08E017481838FDF780FC2CA181
:104BE00014481838FDF786FC12483038FDF777FC7A
:104BF00015A110483038FDF77DFC1AE0CEB9052527
:104C000014E005EB45010C4A02EB810000F062FB69
:104C100058B14FF6E071384600F0B6F9EFB24FF6F2
:104C20001F01384600F0B0F902E06D1C162DE8D9DE
:104C300000BF3CE78E0100204A000020CDA3D6B97A
:104C4000D1B5C1B700000000BFAACABC0000000077
:104C5000D2D1D1B5C1B730B4CE000000BFAACABC12
:104C6000D1B5C1B700000000CCE1C8A1D6D000008A
:104C700000000308DC010020D2D1D1B5C1B7256402
:104C8000B4CE0000D3EFD2F4D3D0D0A70000000000
:104C9000D3EFD2F4CEDED0A70000000038B5002458
:104CA000FFF7C6F965E000F023FC324800F012FB84
:104CB00010B1FFF737F938BD2E48303800F00AFB45
:104CC000002856D000F080F82A483038FDF707FC5D
:104CD00029A128483038FDF70DFC6946284800F026
:104CE0006BF905460098401C002828D0641C214818
:104CF0001830FDF7F4FB2A4622A11E481830FDF7B4
:104D000069FC1C482430FDF7EAFB21A11948243036
:104D1000009AFDF75FFC17481838FDF7E0FB1FA16C
:104D200014481838FDF7E6FB12480C38FDF7D7FB9E
:104D300022461DA10F480C38FDF74CFC10E00D4831
:104D40001830FDF739FC0B482430FDF735FC0948D5
:104D50001838FDF7C4FB17A106481838FDF7CAFB41
:104D600004483038FDF7BBFB15A102483038FDF789
:104D7000C1FB98E78E010020CAB6B1F0D6D0000082
:104D8000DC010020CAB6B1F0BDE1B9FB3A257300E1
:104D9000C6A5C5E4BEE0C0EB3A256400D3EFD2F46B
:104DA000D3D0D0A700000000D2D1CAB6B1F025649C
:104DB000B4CE0000D3EFD2F4CEDED0A700000000C6
:104DC000BFAACABC0000000010B54FF49670FFF7F0
:104DD00057F801211348FEF774F81348FDF77FFBDD
:104DE00012A11148FDF786FB4FF49670FFF748F8C3
:104DF0004FF61F010C480C3000F0D6F800BF02201F
:104E0000FDF7E8F80028FAD000210648FEF759F827
:104E10000220FDF71FF84FF6E07103480C3000F058
:104E2000C3F810BD002C01405E010020C2BCD2F4CA
:104E3000D6D000002DE9F04106460C46C4F30A0026
:104E400028B92A48844202D32948844205D929A096
:104E5000FEF740F90320BDE8F081708800EB4000C8
:104E6000C700FDF769F93420FDF7F0F800250DE0E3
:104E70004FF4006101FB0540FDF7EEF8042804D073
:104E800021A0FEF727F90320E5E76D1C022DEFD3E3
:104E900043F239012046FDF72DF9042804D01FA064
:104EA000FEF718F90320D6E7A41C71882046FDF709
:104EB00021F9042804D019A0FEF70CF90320CAE751
:104EC000A41C00250CE0321D515B6019FDF712F99E
:104ED000042804D011A0FEF7FDF80320BBE7AD1CA9
:104EE000BD42F0D3FDF7FCF80020B4E70000030852
:104EF00000F00708666C6173682061646472206565
:104F000072726F7200000000666C617368204572F7
:104F1000617365204572726F72212000666C617347
:104F2000682050726F6772616D204572726F7221D6
:104F30002000000070B504460D46104A4FF416617B
:104F40002046FFF747FD0D4B0D4A4FF47A5120469E
:104F5000FEF7BCF90A48406808B9012070BD074A4D
:104F600008490748FFF70AFA0648408808B90220AE
:104F7000F4E729460348FFF75DFFEFE7DC7E0020FA
:104F8000E87E0020007F002070B504460D4604EB4B
:104F90004400044901EB800005812046FEF7A8FF8C
:104FA00070BD00004A00002070B504460D46258102
:104FB0002046FDF794FA70BD2DE9F05F83460E465A
:104FC0002B4A4FF416615846FFF704FD284B294A37
:104FD0004FF47A515846FEF779F92648406840B9AF
:104FE0004FF0FF30306024A0FEF774F80020BDE8D9
:104FF000F09F1F4A23491F48FFF7C0F92148408806
:1050000038B94FF0FF3030601FA0FEF763F8002082
:10501000EDE7002700254FF0FF381E4C17E0A146B2
:105020004C46B9F8000043F23901884204D14946A0
:105030001448FFF731F801E04FF0FF308246C245D7
:1050400001D2D0463D46781C87B204F58054124800
:105050008442E4D32846E91705EB9171C1F38F052B
:10506000C6F8008005EB45000C490844BFE7000086
:10507000DC7E0020E87E0020564144206661696C99
:1050800020000000007F00204D46434320666169F8
:105090006C20000000000308000008080000002049
:1050A00010B5044621460248FDF717FE10BD00006A
:1050B0000038004000B587B001218803FDF764FD8A
:1050C0004FF48050ADF8180010208DF81B0003201D
:1050D0008DF81A0006A91D48FDF766F9002000F0BA
:1050E00061F84FF46040ADF8180018208DF81B00EF
:1050F00003208DF81A0006A91448FDF755F9002081
:10510000ADF804004FF48270ADF806000020ADF851
:1051100008000220ADF80A000120ADF80C004002A2
:10512000ADF80E000820ADF810000020ADF8120018
:105130000720ADF8140001A90548FDF7F6FD01218F
:105140000348FDF7BEFD07B000BD0000000C0140A4
:10515000003800402DE9F04104460E461746B0469F
:1051600000F030F8012000F01DF80320FFF798FF51
:10517000C4F30740FFF794FFC4F30720FFF790FF45
:10518000E0B2FFF78DFF002505E00020FFF788FF64
:1051900008F805006D1CBD42F7D3002000F002F8AE
:1051A000BDE8F08110B504460CB9012000E00020F4
:1051B00002464FF480510248FDF78CF910BD000003
:1051C000000C014010B50120FFF7ECFF0520FFF7B0
:1051D00067FF00BF0020FFF763FF00F00100002819
:1051E000F8D1FFF7DFFF10BD70B50546FCF726FAD2
:1051F000044620F00040C0F1FF40C00F08D025F069
:105200000040C0F1FF40C00F04BF0120FEF7CEF9FF
:10521000204670BD00B587B0012141F28400FDF742
:10522000C3FC4FF48060ADF8180048208DF81B00D7
:1052300003208DF81A0006A92348FDF7B5F81020C1
:10524000ADF818008DF81B0003208DF81A0006A990
:105250001E48FDF7A9F8012210211C48FDF73AF974
:10526000E020ADF8180018208DF81B0003208DF801
:105270001A0006A91548FDF797F80020ADF80400BC
:105280004FF48270ADF806000020ADF8080002204F
:10529000ADF80A000120ADF80C004002ADF80E0098
:1052A0001820ADF810000020ADF812000720ADF86E
:1052B000140001A90648FDF738FD01210448FDF757
:1052C00000FD07B000BD0000001C014000080140C7
:1052D00000300140014608880D4A1288904214DAD5
:1052E00008888A8810440A4A128890420DDD48884E
:1052F000084A1288904208DA4888CA881044054A49
:105300001288904201DD012070470020FCE7000078
:10531000BE010020C00100202DE9F0418AB00746FF
:105320008846002441E0002210216A48FDF7D2F8A7
:10533000D0216948FDF7D1FC0620FEF7BDFD002114
:105340006548FDF7CAFC05462D0200216248FDF7BD
:10535000C4FC0543ED0890215F48FDF7BEFC062024
:10536000FEF7AAFD00215C48FDF7B7FC06463602B1
:1053700000215948FDF7B1FC0643F608012210212F
:105380005448FDF7A7F8642D0FD9B5F57A6F0CD204
:10539000642E0AD9B6F57A6F07D205A921F8145000
:1053A000B0B22DF81400601C84B20A2C06DA4FF457
:1053B00080614A48FDF783F80028B4D00A2C7CD1DC
:1053C000002427E005A830F8141005AA601C32F864
:1053D000100081420BDD05A830F8145005A9601CAF
:1053E00031F8100021F81400601C21F810503DF82D
:1053F0001410601C3DF81000814209DD3DF8146076
:10540000601C3DF810002DF81400601C2DF8106091
:10541000601C84B2092CD5DB082427E005A830F8ED
:105420001410601E05AA32F8100081420BDA05A89C
:1054300030F81450601E05A931F8100021F814004E
:10544000601E21F810503DF81410601E3DF8100049
:10545000814209DA3DF81460601E3DF810002DF815
:105460001400601E2DF81060601E84B2002CD5DC84
:1054700000250026012408E005A830F814000544A2
:105480003DF814000644601C84B2092CF4DBED08DE
:10549000F608700140F26111B0FBF1F0891E081AA4
:1054A000388005EB4500C000091DB0FBF1F040F26B
:1054B0000111081AA8F8000000E009E0B8F800207F
:1054C000398807A0FDF71EFE01200AB0BDE8F08173
:1054D0000020FAE70008014000300140001C0140B4
:1054E0006C6566743D25642C20746F703D256400E6
:1054F00010B523E000BF4FF480611248FCF7DFFFD6
:105500000028F8D110A0FDF7FDFD13491348FFF75F
:1055100003FF98B1104802881048018810A0FDF7D9
:10552000F1FD03E00C490D48FFF7F6FE4FF48061F2
:105530000448FCF7C4FF0028F4D000E0DAE700BF1D
:1055400010BD0000001C01405453435F494E5F549E
:105550004F55434800000000C0010020BE0100205C
:105560006C6566743D25642C20746F703D25640065
:10557000200324032E03400359037903A103CF031F
:10558000040440048304CC041C057205CE053106D6
:10559000990608077B07F5077308F70880090D0AC5
:1055A0009E0A340BCE0B6B0C0C0DB00D570E010F79
:1055B000AD0F5B100C11BE1171122513DA1390148C
:1055C0004515FB15B01665171918CC187D192C1A3E
:1055D000D91A841B2D1CD21C751D141EB01E471F0A
:1055E000DB1F6A20F5207B21FD217922EF22602339
:1055F000CC2331249124EA243D258A25D0250F2669
:1056000047267926A426C726E426FA2608270F2748
:105610000F270827FA26E426C726A4267926472638
:105620000F26D0258A253D25EA2491243124CC2338
:105630006023EF227922FD217B21F5206A20DB1FE8
:10564000471FB01E141E751DD21C2D1C841BD91A99
:105650002C1A7D19CC1819186517B016FB154515AD
:105660009014DA1325137112BE110C115B10AD0FDB
:10567000010F570EB00D0C0D6B0CCE0B340B9E0AA8
:105680000D0A8009F7087308F5077B0708079906D4
:105690003106CE0572051C05CC04830440040404C5
:1056A000CF03A1037903590340032E0324032003EE
:1056B0000B00160021002C00370042004D0058005E
:1056C00063006E00790086009800AB00BF00D60032
:1056D000ED0007012301410162018501AB01D40105
:1056E00000000000000000000000000000000000BA
:1056F0000000000000005B00B60011016C01C70152
:1057000021027C02D70232038D03E8038D033203AA
:10571000D7027C022102C7016C011101B6005B00B7
:1057200000005B00B60011016C01C70121027C0280
:10573000D70232038D03E8038D033203D7027C02C4
:105740002102C7016C011101B6005B0000005B0083
:10575000B60011016C01C70121027C02D70232039D
:105760008D03E8038D033203D7027C022102C701B7
:105770006C011101B6005B0000005B00B600110176
:105780006C01C70121027C02D70232038D03E803BA
:105790008D033203D7027C022102C7016C01110183
:1057A000B6005B0000005B00B60011016C01C70190
:1057B00021027C02D70232038D03E8038D033203FA
:1057C000D7027C022102C7016C011101B6005B0007
:1057D00000004D009A00E70034018101CE011A0259
:1057E0006702B40201034E039B03E803B00379038D
:1057F00041030A03D2029B0263022C02F401BC01A2
:1058000085014D011601DE00A7006F003800000081
:10581000350069009E00D30007013C017001A5011D
:10582000DA010E0243027802AC02E10215034A03D8
:105830007F03B303E803B603840352032003EE029D
:10584000BC028A0258022602F401C20190015E01E4
:105850002C01FA00C80096006400320000002B0002
:1058600057008200AE00D900050130015C018701BC
:10587000B301DE010A02350261028C02B802E302C2
:105880000F033A0366039103BD03E803BD039103CD
:1058900066033A030F03E302B8028C026102350289
:1058A0000A02DE01B30187015C0130010501D90064
:1058B000AE00820057002B00000026004D00730050
:1058C0009A00C000E7000D0134015A018101A701CF
:1058D000CE01F4011A02410267028E02B402DB0219
:1058E000010328034E0375039B03C203E803C403AB
:1058F000A1037D03590335031203EE02CA02A70276
:1059000083025F023B021802F401D001AD0189015C
:10591000650141011E01FA00D600B3008F006B0043
:105920004700240000002100430064008500A70018
:10593000C800E9000B012C014D016F019001B1017C
:10594000D301F40115023702580279029B02BC020E
:10595000DD02FF022003410363038403A503C703A1
:10596000E803CA03AB038D036F0350033203140330
:10597000F602D702B9029B027C025E0240022102BB
:105980000302E501C701A8018A016C014D012F0145
:105990001101F200D400B600980079005B003D00D0
:1059A0001E0000001D003900560072008F00AB0081
:1059B000C800E50001011E013A0157017301900181
:1059C000AD01C901E60102021F023B025802750245
:1059D0009102AE02CA02E702030320033D0359030A
:1059E00076039203AF03CB03E803CE03B30399031B
:1059F0007F0364034A0330031503FB02E102C7027D
:105A0000AC02920278025D02430229020E02F40106
:105A1000DA01BF01A5018B01700156013C01210192
:105A20000701ED00D300B8009E00840069004F001C
:105A300035001A00000018003100490062007A00A9
:105A40009200AB00C300DC00F4000C0125013D0115
:105A500055016E0186019F01B701CF01E8010002E7
:105A600019023102490262027A029302AB02C302B6
:105A7000DC02F4020C0325033D0356036E03860388
:105A80009F03B703D003E803D103BB03A4038D0333
:105A900076036003490332031B030503EE02D702BA
:105AA000C102AA0293027C0266024F02380221025E
:105AB0000B02F401DD01C701B001990182016C0103
:105AC00055013E0127011101FA00E300CD00B600A7
:105AD0009F00880072005B0044002D00170000004A
